{
  "address": "0xFEcd00B18Ba84c6f2EB4a69398f077aB2182D779",
  "abi": [
    {
      "inputs": [
        {
          "internalType": "uint256",
          "name": "startTime",
          "type": "uint256"
        },
        {
          "internalType": "uint256",
          "name": "biddingTime",
          "type": "uint256"
        },
        {
          "internalType": "uint256",
          "name": "revealTime",
          "type": "uint256"
        },
        {
          "internalType": "address payable",
          "name": "beneficiaryAddress",
          "type": "address"
        }
      ],
      "stateMutability": "nonpayable",
      "type": "constructor"
    },
    {
      "inputs": [],
      "name": "AuctionEndAlreadyCalled",
      "type": "error"
    },
    {
      "inputs": [
        {
          "internalType": "uint256",
          "name": "time",
          "type": "uint256"
        }
      ],
      "name": "TooEarly",
      "type": "error"
    },
    {
      "inputs": [
        {
          "internalType": "uint256",
          "name": "time",
          "type": "uint256"
        }
      ],
      "name": "TooLate",
      "type": "error"
    },
    {
      "anonymous": false,
      "inputs": [
        {
          "indexed": false,
          "internalType": "address",
          "name": "winner",
          "type": "address"
        },
        {
          "indexed": false,
          "internalType": "uint256",
          "name": "highestBid",
          "type": "uint256"
        }
      ],
      "name": "AuctionEnded",
      "type": "event"
    },
    {
      "anonymous": false,
      "inputs": [
        {
          "indexed": false,
          "internalType": "address",
          "name": "bidder",
          "type": "address"
        },
        {
          "indexed": false,
          "internalType": "uint256",
          "name": "value",
          "type": "uint256"
        },
        {
          "indexed": false,
          "internalType": "bool",
          "name": "success",
          "type": "bool"
        }
      ],
      "name": "BidRevealed",
      "type": "event"
    },
    {
      "anonymous": false,
      "inputs": [
        {
          "indexed": false,
          "internalType": "address",
          "name": "bidder",
          "type": "address"
        },
        {
          "indexed": false,
          "internalType": "uint256",
          "name": "deposit",
          "type": "uint256"
        }
      ],
      "name": "BidSubmitted",
      "type": "event"
    },
    {
      "inputs": [],
      "name": "auctionEnd",
      "outputs": [],
      "stateMutability": "nonpayable",
      "type": "function"
    },
    {
      "inputs": [],
      "name": "beneficiary",
      "outputs": [
        {
          "internalType": "address payable",
          "name": "",
          "type": "address"
        }
      ],
      "stateMutability": "view",
      "type": "function"
    },
    {
      "inputs": [
        {
          "internalType": "bytes32",
          "name": "blindedBid",
          "type": "bytes32"
        }
      ],
      "name": "bid",
      "outputs": [],
      "stateMutability": "payable",
      "type": "function"
    },
    {
      "inputs": [],
      "name": "biddingEnd",
      "outputs": [
        {
          "internalType": "uint256",
          "name": "",
          "type": "uint256"
        }
      ],
      "stateMutability": "view",
      "type": "function"
    },
    {
      "inputs": [],
      "name": "biddingStart",
      "outputs": [
        {
          "internalType": "uint256",
          "name": "",
          "type": "uint256"
        }
      ],
      "stateMutability": "view",
      "type": "function"
    },
    {
      "inputs": [],
      "name": "biddingStartTimeLeft",
      "outputs": [
        {
          "internalType": "uint256",
          "name": "",
          "type": "uint256"
        }
      ],
      "stateMutability": "view",
      "type": "function"
    },
    {
      "inputs": [],
      "name": "biddingTimeLeft",
      "outputs": [
        {
          "internalType": "uint256",
          "name": "",
          "type": "uint256"
        }
      ],
      "stateMutability": "view",
      "type": "function"
    },
    {
      "inputs": [
        {
          "internalType": "address",
          "name": "",
          "type": "address"
        },
        {
          "internalType": "uint256",
          "name": "",
          "type": "uint256"
        }
      ],
      "name": "bids",
      "outputs": [
        {
          "internalType": "bytes32",
          "name": "blindedBid",
          "type": "bytes32"
        },
        {
          "internalType": "uint256",
          "name": "deposit",
          "type": "uint256"
        }
      ],
      "stateMutability": "view",
      "type": "function"
    },
    {
      "inputs": [],
      "name": "ended",
      "outputs": [
        {
          "internalType": "bool",
          "name": "",
          "type": "bool"
        }
      ],
      "stateMutability": "view",
      "type": "function"
    },
    {
      "inputs": [],
      "name": "getAuctionPhase",
      "outputs": [
        {
          "internalType": "uint256",
          "name": "",
          "type": "uint256"
        }
      ],
      "stateMutability": "view",
      "type": "function"
    },
    {
      "inputs": [
        {
          "internalType": "address",
          "name": "bidder",
          "type": "address"
        }
      ],
      "name": "getBidCount",
      "outputs": [
        {
          "internalType": "uint256",
          "name": "",
          "type": "uint256"
        }
      ],
      "stateMutability": "view",
      "type": "function"
    },
    {
      "inputs": [],
      "name": "highestBid",
      "outputs": [
        {
          "internalType": "uint256",
          "name": "",
          "type": "uint256"
        }
      ],
      "stateMutability": "view",
      "type": "function"
    },
    {
      "inputs": [],
      "name": "highestBidder",
      "outputs": [
        {
          "internalType": "address",
          "name": "",
          "type": "address"
        }
      ],
      "stateMutability": "view",
      "type": "function"
    },
    {
      "inputs": [
        {
          "internalType": "uint256[]",
          "name": "values",
          "type": "uint256[]"
        },
        {
          "internalType": "bool[]",
          "name": "fakes",
          "type": "bool[]"
        },
        {
          "internalType": "bytes32[]",
          "name": "secrets",
          "type": "bytes32[]"
        }
      ],
      "name": "reveal",
      "outputs": [],
      "stateMutability": "nonpayable",
      "type": "function"
    },
    {
      "inputs": [],
      "name": "revealEnd",
      "outputs": [
        {
          "internalType": "uint256",
          "name": "",
          "type": "uint256"
        }
      ],
      "stateMutability": "view",
      "type": "function"
    },
    {
      "inputs": [],
      "name": "revealTimeLeft",
      "outputs": [
        {
          "internalType": "uint256",
          "name": "",
          "type": "uint256"
        }
      ],
      "stateMutability": "view",
      "type": "function"
    },
    {
      "inputs": [],
      "name": "withdraw",
      "outputs": [],
      "stateMutability": "nonpayable",
      "type": "function"
    }
  ],
  "transactionHash": "0xe83516d9193029c45480ebc2b8fec87fc416841a12431fb6a25f0542526433d8",
  "args": [
    1748877180,
    1800,
    900,
    "0x906CBCA3B02fd5BF783206883565c73A9Fc78e57"
  ],
  "numDeployments": 2,
  "solcInputHash": "4c4d831c6204608c3a71f27b61bacccf",
  "bytecode": "0x608060405234801561001057600080fd5b50604051610cfe380380610cfe83398101604081905261002f91610076565b600080546001600160a01b0319166001600160a01b038316179055600184905561005983856100c5565b60028190556100699083906100c5565b600355506100eb92505050565b6000806000806080858703121561008c57600080fd5b845160208601516040870151606088015192965090945092506001600160a01b03811681146100ba57600080fd5b939692955090935050565b600082198211156100e657634e487b7160e01b600052601160045260246000fd5b500190565b610c04806100fa6000396000f3fe6080604052600436106100fe5760003560e01c8063900f080a11610095578063a6e6647711610064578063a6e6647714610282578063d57bde7914610298578063e75f480c146102ae578063e8f9009a146102c3578063fc519f15146102f957600080fd5b8063900f080a1461021a57806391f901571461023a5780639528d4e91461025a578063957bb1e01461026f57600080fd5b806338af3eed116100d157806338af3eed146101a25780633ccfd60b146101da578063423b217f146101ef57806351dcb1c31461020557600080fd5b806301495c1c14610103578063022a6fae1461013d57806312fa6feb146101615780632a24f46c1461018b575b600080fd5b34801561010f57600080fd5b5061012361011e366004610a22565b61030e565b604080519283526020830191909152015b60405180910390f35b34801561014957600080fd5b5061015360015481565b604051908152602001610134565b34801561016d57600080fd5b5060045461017b9060ff1681565b6040519015158152602001610134565b34801561019757600080fd5b506101a061034a565b005b3480156101ae57600080fd5b506000546101c2906001600160a01b031681565b6040516001600160a01b039091168152602001610134565b3480156101e657600080fd5b506101a061042f565b3480156101fb57600080fd5b5061015360025481565b34801561021157600080fd5b50610153610483565b34801561022657600080fd5b506101a0610235366004610a4c565b6104b6565b34801561024657600080fd5b506006546101c2906001600160a01b031681565b34801561026657600080fd5b506101536107cf565b6101a061027d366004610b08565b6107ee565b34801561028e57600080fd5b5061015360035481565b3480156102a457600080fd5b5061015360075481565b3480156102ba57600080fd5b506101536108c0565b3480156102cf57600080fd5b506101536102de366004610a00565b6001600160a01b031660009081526005602052604090205490565b34801561030557600080fd5b506101536108df565b6005602052816000526040600020818154811061032a57600080fd5b600091825260209091206002909102018054600190910154909250905082565b60035480421161037557604051630a8d68c960e21b8152600481018290526024015b60405180910390fd5b60045460ff161561039957604051630c39fb9f60e31b815260040160405180910390fd5b600654600754604080516001600160a01b03909316835260208301919091527fdaec4582d5d9595688c8c98545fdd1c696d41c6aeaeb636737e84ed2f5c00eda910160405180910390a16004805460ff19166001179055600080546007546040516001600160a01b039092169281156108fc029290818181858888f1935050505015801561042b573d6000803e3d6000fd5b5050565b33600090815260086020526040902054801561048057336000818152600860205260408082208290555183156108fc0291849190818181858888f1935050505015801561042b573d6000803e3d6000fd5b50565b600060025442116104945750600090565b60035442106104a35750600090565b426003546104b19190610b70565b905090565b6002548042116104dc57604051630a8d68c960e21b81526004810182905260240161036c565b6003548042106105025760405163348f2b4160e11b81526004810182905260240161036c565b336000908152600560205260409020548781146105315760405162461bcd60e51b815260040161036c90610b21565b8581146105505760405162461bcd60e51b815260040161036c90610b21565b83811461056f5760405162461bcd60e51b815260040161036c90610b21565b6000805b8281101561078d5733600090815260056020526040812080548390811061059c5761059c610bb8565b9060005260206000209060020201905060008060008e8e868181106105c3576105c3610bb8565b905060200201358d8d878181106105dc576105dc610bb8565b90506020020160208101906105f19190610ae6565b8c8c8881811061060357610603610bb8565b905060200201359250925092508282826040516020016106399392919092835290151560f81b6020830152602182015260410190565b60405160208183030381529060405280519060200120846000015414610662575050505061077b565b60018401546106719087610b58565b955081158015610685575082846001015410155b15610731576106943384610917565b156106f0576106a38387610b70565b60408051338152602081018690526001918101919091529096507f9c2d1dff1e244149eef8b49255674d40752acd825b23d4ad303807f98fe59532906060015b60405180910390a1610772565b60408051338152602081018590526000918101919091527f9c2d1dff1e244149eef8b49255674d40752acd825b23d4ad303807f98fe59532906060016106e3565b604080513381526000602082018190528183015290517f9c2d1dff1e244149eef8b49255674d40752acd825b23d4ad303807f98fe595329181900360600190a15b50506000909155505b8061078581610b87565b915050610573565b5080156107c357604051339082156108fc029083906000818181858888f193505050501580156107c1573d6000803e3d6000fd5b505b50505050505050505050565b600060015442106107e05750600090565b426001546104b19190610b70565b60015480421161081457604051630a8d68c960e21b81526004810182905260240161036c565b60025480421061083a5760405163348f2b4160e11b81526004810182905260240161036c565b33600081815260056020908152604080832081518083018352888152348185018181528354600180820186559488529686902092516002909702909201958655905194909101939093558051938452908301919091527f0862512267aa2317caa9475b7e771425e6b897509aade0be0d8fc6f5ce5fdd18910160405180910390a1505050565b600060025442106108d15750600090565b426002546104b19190610b70565b60006001544210156108f15750600090565b6002544210156109015750600190565b6003544210156109115750600290565b50600390565b6000600754821161092a57506000610992565b6006546001600160a01b03161561096e576007546006546001600160a01b031660009081526008602052604081208054909190610968908490610b58565b90915550505b506007819055600680546001600160a01b0319166001600160a01b03841617905560015b92915050565b80356001600160a01b03811681146109af57600080fd5b919050565b60008083601f8401126109c657600080fd5b50813567ffffffffffffffff8111156109de57600080fd5b6020830191508360208260051b85010111156109f957600080fd5b9250929050565b600060208284031215610a1257600080fd5b610a1b82610998565b9392505050565b60008060408385031215610a3557600080fd5b610a3e83610998565b946020939093013593505050565b60008060008060008060608789031215610a6557600080fd5b863567ffffffffffffffff80821115610a7d57600080fd5b610a898a838b016109b4565b90985096506020890135915080821115610aa257600080fd5b610aae8a838b016109b4565b90965094506040890135915080821115610ac757600080fd5b50610ad489828a016109b4565b979a9699509497509295939492505050565b600060208284031215610af857600080fd5b81358015158114610a1b57600080fd5b600060208284031215610b1a57600080fd5b5035919050565b6020808252601a908201527f4172726179206c656e6774687320646f206e6f74206d61746368000000000000604082015260600190565b60008219821115610b6b57610b6b610ba2565b500190565b600082821015610b8257610b82610ba2565b500390565b6000600019821415610b9b57610b9b610ba2565b5060010190565b634e487b7160e01b600052601160045260246000fd5b634e487b7160e01b600052603260045260246000fdfea26469706673582212207e893d5b668f373f5cb47aceb5028e26425f3c6bf8a6e5e863e8e9b7f017399c64736f6c63430008050033",
  "devdoc": {
    "kind": "dev",
    "methods": {
      "bid(bytes32)": {
        "params": {
          "blindedBid": "加密后的出价值（keccak256(value, fake, secret)）"
        }
      },
      "constructor": {
        "params": {
          "beneficiaryAddress": "受益人地址",
          "biddingTime": "竞标阶段的持续时间（秒）",
          "revealTime": "披露阶段的持续时间（秒）",
          "startTime": "竞标开始时间（时间戳）"
        }
      },
      "getAuctionPhase()": {
        "returns": {
          "_0": "0-未开始 1-竞标阶段 2-披露阶段 3-拍卖结束"
        }
      },
      "reveal(uint256[],bool[],bytes32[])": {
        "params": {
          "fakes": "是否为假出价（true 表示该出价为虚假）",
          "secrets": "每个出价对应的私密值",
          "values": "出价金额数组"
        }
      }
    },
    "title": "盲拍（Blind Auction）智能合约",
    "version": 1
  },
  "userdoc": {
    "kind": "user",
    "methods": {
      "auctionEnd()": {
        "notice": "结束拍卖：只能调用一次，将最高出价金额转给受益人"
      },
      "bid(bytes32)": {
        "notice": "用户提交盲拍（加密的出价）"
      },
      "biddingStartTimeLeft()": {
        "notice": "查询竞标开始剩余时间"
      },
      "biddingTimeLeft()": {
        "notice": "查询竞标阶段剩余时间"
      },
      "constructor": {
        "notice": "构造函数，初始化受益人、竞标开始时间和各阶段时长"
      },
      "getAuctionPhase()": {
        "notice": "获取竞标阶段状态"
      },
      "getBidCount(address)": {
        "notice": "获取用户的出价数量"
      },
      "reveal(uint256[],bool[],bytes32[])": {
        "notice": "披露阶段：用户公开其盲拍的真实数据"
      },
      "revealTimeLeft()": {
        "notice": "查询披露阶段剩余时间"
      },
      "withdraw()": {
        "notice": "用户取回未成功的竞标所冻结的押金"
      }
    },
    "notice": "该合约允许用户进行匿名竞标，之后再披露出价，保障竞标的公平性    ",
    "version": 1
  },
  "storageLayout": {
    "storage": [
      {
        "astId": 9,
        "contract": "contracts/BlindAuction.sol:BlindAuction",
        "label": "beneficiary",
        "offset": 0,
        "slot": "0",
        "type": "t_address_payable"
      },
      {
        "astId": 11,
        "contract": "contracts/BlindAuction.sol:BlindAuction",
        "label": "biddingStart",
        "offset": 0,
        "slot": "1",
        "type": "t_uint256"
      },
      {
        "astId": 13,
        "contract": "contracts/BlindAuction.sol:BlindAuction",
        "label": "biddingEnd",
        "offset": 0,
        "slot": "2",
        "type": "t_uint256"
      },
      {
        "astId": 15,
        "contract": "contracts/BlindAuction.sol:BlindAuction",
        "label": "revealEnd",
        "offset": 0,
        "slot": "3",
        "type": "t_uint256"
      },
      {
        "astId": 17,
        "contract": "contracts/BlindAuction.sol:BlindAuction",
        "label": "ended",
        "offset": 0,
        "slot": "4",
        "type": "t_bool"
      },
      {
        "astId": 23,
        "contract": "contracts/BlindAuction.sol:BlindAuction",
        "label": "bids",
        "offset": 0,
        "slot": "5",
        "type": "t_mapping(t_address,t_array(t_struct(Bid)7_storage)dyn_storage)"
      },
      {
        "astId": 25,
        "contract": "contracts/BlindAuction.sol:BlindAuction",
        "label": "highestBidder",
        "offset": 0,
        "slot": "6",
        "type": "t_address"
      },
      {
        "astId": 27,
        "contract": "contracts/BlindAuction.sol:BlindAuction",
        "label": "highestBid",
        "offset": 0,
        "slot": "7",
        "type": "t_uint256"
      },
      {
        "astId": 31,
        "contract": "contracts/BlindAuction.sol:BlindAuction",
        "label": "pendingReturns",
        "offset": 0,
        "slot": "8",
        "type": "t_mapping(t_address,t_uint256)"
      }
    ],
    "types": {
      "t_address": {
        "encoding": "inplace",
        "label": "address",
        "numberOfBytes": "20"
      },
      "t_address_payable": {
        "encoding": "inplace",
        "label": "address payable",
        "numberOfBytes": "20"
      },
      "t_array(t_struct(Bid)7_storage)dyn_storage": {
        "base": "t_struct(Bid)7_storage",
        "encoding": "dynamic_array",
        "label": "struct BlindAuction.Bid[]",
        "numberOfBytes": "32"
      },
      "t_bool": {
        "encoding": "inplace",
        "label": "bool",
        "numberOfBytes": "1"
      },
      "t_bytes32": {
        "encoding": "inplace",
        "label": "bytes32",
        "numberOfBytes": "32"
      },
      "t_mapping(t_address,t_array(t_struct(Bid)7_storage)dyn_storage)": {
        "encoding": "mapping",
        "key": "t_address",
        "label": "mapping(address => struct BlindAuction.Bid[])",
        "numberOfBytes": "32",
        "value": "t_array(t_struct(Bid)7_storage)dyn_storage"
      },
      "t_mapping(t_address,t_uint256)": {
        "encoding": "mapping",
        "key": "t_address",
        "label": "mapping(address => uint256)",
        "numberOfBytes": "32",
        "value": "t_uint256"
      },
      "t_struct(Bid)7_storage": {
        "encoding": "inplace",
        "label": "struct BlindAuction.Bid",
        "members": [
          {
            "astId": 4,
            "contract": "contracts/BlindAuction.sol:BlindAuction",
            "label": "blindedBid",
            "offset": 0,
            "slot": "0",
            "type": "t_bytes32"
          },
          {
            "astId": 6,
            "contract": "contracts/BlindAuction.sol:BlindAuction",
            "label": "deposit",
            "offset": 0,
            "slot": "1",
            "type": "t_uint256"
          }
        ],
        "numberOfBytes": "64"
      },
      "t_uint256": {
        "encoding": "inplace",
        "label": "uint256",
        "numberOfBytes": "32"
      }
    }
  }
}