{
  "address": "0xDD418e2425ceB299d465865449f80cCA9596c56f",
  "abi": [
    {
      "inputs": [
        {
          "internalType": "uint256",
          "name": "startTime",
          "type": "uint256"
        },
        {
          "internalType": "uint256",
          "name": "biddingTime",
          "type": "uint256"
        },
        {
          "internalType": "uint256",
          "name": "revealTime",
          "type": "uint256"
        },
        {
          "internalType": "address payable",
          "name": "beneficiaryAddress",
          "type": "address"
        },
        {
          "internalType": "uint256",
          "name": "_nftTokenId",
          "type": "uint256"
        },
        {
          "internalType": "address",
          "name": "_nftContract",
          "type": "address"
        }
      ],
      "stateMutability": "nonpayable",
      "type": "constructor"
    },
    {
      "inputs": [],
      "name": "AuctionEndAlreadyCalled",
      "type": "error"
    },
    {
      "inputs": [
        {
          "internalType": "uint256",
          "name": "time",
          "type": "uint256"
        }
      ],
      "name": "TooEarly",
      "type": "error"
    },
    {
      "inputs": [
        {
          "internalType": "uint256",
          "name": "time",
          "type": "uint256"
        }
      ],
      "name": "TooLate",
      "type": "error"
    },
    {
      "anonymous": false,
      "inputs": [
        {
          "indexed": false,
          "internalType": "address",
          "name": "winner",
          "type": "address"
        },
        {
          "indexed": false,
          "internalType": "uint256",
          "name": "highestBid",
          "type": "uint256"
        },
        {
          "indexed": false,
          "internalType": "uint256",
          "name": "nftTokenId",
          "type": "uint256"
        }
      ],
      "name": "AuctionEnded",
      "type": "event"
    },
    {
      "anonymous": false,
      "inputs": [
        {
          "indexed": false,
          "internalType": "address",
          "name": "bidder",
          "type": "address"
        },
        {
          "indexed": false,
          "internalType": "uint256",
          "name": "value",
          "type": "uint256"
        },
        {
          "indexed": false,
          "internalType": "bool",
          "name": "success",
          "type": "bool"
        }
      ],
      "name": "BidRevealed",
      "type": "event"
    },
    {
      "anonymous": false,
      "inputs": [
        {
          "indexed": false,
          "internalType": "address",
          "name": "bidder",
          "type": "address"
        },
        {
          "indexed": false,
          "internalType": "uint256",
          "name": "deposit",
          "type": "uint256"
        }
      ],
      "name": "BidSubmitted",
      "type": "event"
    },
    {
      "anonymous": false,
      "inputs": [
        {
          "indexed": true,
          "internalType": "uint256",
          "name": "tokenId",
          "type": "uint256"
        },
        {
          "indexed": true,
          "internalType": "address",
          "name": "from",
          "type": "address"
        },
        {
          "indexed": true,
          "internalType": "address",
          "name": "to",
          "type": "address"
        }
      ],
      "name": "NFTTransferred",
      "type": "event"
    },
    {
      "inputs": [],
      "name": "auctionEnd",
      "outputs": [],
      "stateMutability": "nonpayable",
      "type": "function"
    },
    {
      "inputs": [],
      "name": "beneficiary",
      "outputs": [
        {
          "internalType": "address payable",
          "name": "",
          "type": "address"
        }
      ],
      "stateMutability": "view",
      "type": "function"
    },
    {
      "inputs": [
        {
          "internalType": "bytes32",
          "name": "blindedBid",
          "type": "bytes32"
        }
      ],
      "name": "bid",
      "outputs": [],
      "stateMutability": "payable",
      "type": "function"
    },
    {
      "inputs": [],
      "name": "biddingEnd",
      "outputs": [
        {
          "internalType": "uint256",
          "name": "",
          "type": "uint256"
        }
      ],
      "stateMutability": "view",
      "type": "function"
    },
    {
      "inputs": [],
      "name": "biddingStart",
      "outputs": [
        {
          "internalType": "uint256",
          "name": "",
          "type": "uint256"
        }
      ],
      "stateMutability": "view",
      "type": "function"
    },
    {
      "inputs": [],
      "name": "biddingStartTimeLeft",
      "outputs": [
        {
          "internalType": "uint256",
          "name": "",
          "type": "uint256"
        }
      ],
      "stateMutability": "view",
      "type": "function"
    },
    {
      "inputs": [],
      "name": "biddingTimeLeft",
      "outputs": [
        {
          "internalType": "uint256",
          "name": "",
          "type": "uint256"
        }
      ],
      "stateMutability": "view",
      "type": "function"
    },
    {
      "inputs": [
        {
          "internalType": "address",
          "name": "",
          "type": "address"
        },
        {
          "internalType": "uint256",
          "name": "",
          "type": "uint256"
        }
      ],
      "name": "bids",
      "outputs": [
        {
          "internalType": "bytes32",
          "name": "blindedBid",
          "type": "bytes32"
        },
        {
          "internalType": "uint256",
          "name": "deposit",
          "type": "uint256"
        }
      ],
      "stateMutability": "view",
      "type": "function"
    },
    {
      "inputs": [],
      "name": "ended",
      "outputs": [
        {
          "internalType": "bool",
          "name": "",
          "type": "bool"
        }
      ],
      "stateMutability": "view",
      "type": "function"
    },
    {
      "inputs": [],
      "name": "factory",
      "outputs": [
        {
          "internalType": "address",
          "name": "",
          "type": "address"
        }
      ],
      "stateMutability": "view",
      "type": "function"
    },
    {
      "inputs": [],
      "name": "getAuctionPhase",
      "outputs": [
        {
          "internalType": "uint256",
          "name": "",
          "type": "uint256"
        }
      ],
      "stateMutability": "view",
      "type": "function"
    },
    {
      "inputs": [
        {
          "internalType": "address",
          "name": "bidder",
          "type": "address"
        }
      ],
      "name": "getBidCount",
      "outputs": [
        {
          "internalType": "uint256",
          "name": "",
          "type": "uint256"
        }
      ],
      "stateMutability": "view",
      "type": "function"
    },
    {
      "inputs": [],
      "name": "getNFTInfo",
      "outputs": [
        {
          "internalType": "bool",
          "name": "isNFT",
          "type": "bool"
        },
        {
          "internalType": "uint256",
          "name": "tokenId",
          "type": "uint256"
        },
        {
          "internalType": "address",
          "name": "nftOwner",
          "type": "address"
        }
      ],
      "stateMutability": "view",
      "type": "function"
    },
    {
      "inputs": [],
      "name": "highestBid",
      "outputs": [
        {
          "internalType": "uint256",
          "name": "",
          "type": "uint256"
        }
      ],
      "stateMutability": "view",
      "type": "function"
    },
    {
      "inputs": [],
      "name": "highestBidder",
      "outputs": [
        {
          "internalType": "address",
          "name": "",
          "type": "address"
        }
      ],
      "stateMutability": "view",
      "type": "function"
    },
    {
      "inputs": [],
      "name": "isNFTAuction",
      "outputs": [
        {
          "internalType": "bool",
          "name": "",
          "type": "bool"
        }
      ],
      "stateMutability": "view",
      "type": "function"
    },
    {
      "inputs": [],
      "name": "nftContract",
      "outputs": [
        {
          "internalType": "contract AuctionNFT",
          "name": "",
          "type": "address"
        }
      ],
      "stateMutability": "view",
      "type": "function"
    },
    {
      "inputs": [],
      "name": "nftTokenId",
      "outputs": [
        {
          "internalType": "uint256",
          "name": "",
          "type": "uint256"
        }
      ],
      "stateMutability": "view",
      "type": "function"
    },
    {
      "inputs": [
        {
          "internalType": "address",
          "name": "",
          "type": "address"
        },
        {
          "internalType": "address",
          "name": "",
          "type": "address"
        },
        {
          "internalType": "uint256",
          "name": "",
          "type": "uint256"
        },
        {
          "internalType": "bytes",
          "name": "",
          "type": "bytes"
        }
      ],
      "name": "onERC721Received",
      "outputs": [
        {
          "internalType": "bytes4",
          "name": "",
          "type": "bytes4"
        }
      ],
      "stateMutability": "pure",
      "type": "function"
    },
    {
      "inputs": [
        {
          "internalType": "uint256[]",
          "name": "values",
          "type": "uint256[]"
        },
        {
          "internalType": "bool[]",
          "name": "fakes",
          "type": "bool[]"
        },
        {
          "internalType": "bytes32[]",
          "name": "secrets",
          "type": "bytes32[]"
        }
      ],
      "name": "reveal",
      "outputs": [],
      "stateMutability": "nonpayable",
      "type": "function"
    },
    {
      "inputs": [],
      "name": "revealEnd",
      "outputs": [
        {
          "internalType": "uint256",
          "name": "",
          "type": "uint256"
        }
      ],
      "stateMutability": "view",
      "type": "function"
    },
    {
      "inputs": [],
      "name": "revealTimeLeft",
      "outputs": [
        {
          "internalType": "uint256",
          "name": "",
          "type": "uint256"
        }
      ],
      "stateMutability": "view",
      "type": "function"
    },
    {
      "inputs": [
        {
          "internalType": "uint256",
          "name": "_nftTokenId",
          "type": "uint256"
        }
      ],
      "name": "setNFTTokenId",
      "outputs": [],
      "stateMutability": "nonpayable",
      "type": "function"
    },
    {
      "inputs": [],
      "name": "withdraw",
      "outputs": [],
      "stateMutability": "nonpayable",
      "type": "function"
    }
  ],
  "transactionHash": "0x4f7b78d12f02636d81a36b5544f40f581cc5ce6b386fe86221dd6749629dcc8d",
  "args": [
    1751350629,
    1800,
    900,
    "0x906CBCA3B02fd5BF783206883565c73A9Fc78e57",
    0,
    "0x0000000000000000000000000000000000000000"
  ],
  "numDeployments": 4,
  "solcInputHash": "24d6194a5475c9db93ccec9ed43d6a61",
  "bytecode": "0x60806040523480156200001157600080fd5b5060405162001365380380620013658339810160408190526200003491620000de565b600080546001600160a01b0319166001600160a01b038516179055600186905562000060858762000142565b60028190556200007290859062000142565b600355600b80546001600160a01b031916331790556009829055600a8054600160a01b841515810260ff60a01b199092169190911791829055900460ff1615620000d257600a80546001600160a01b0319166001600160a01b0383161790555b50505050505062000182565b60008060008060008060c08789031215620000f857600080fd5b86519550602087015194506040870151935060608701516200011a8162000169565b608088015160a08901519194509250620001348162000169565b809150509295509295509295565b600082198211156200016457634e487b7160e01b600052601160045260246000fd5b500190565b6001600160a01b03811681146200017f57600080fd5b50565b6111d380620001926000396000f3fe60806040526004361061014b5760003560e01c80637e830574116100b6578063c45a01551161006f578063c45a0155146103bc578063d56d229d146103dc578063d57bde79146103fc578063e75f480c14610412578063e8f9009a14610427578063fc519f151461045d57600080fd5b80637e83057414610328578063900f080a1461033e57806391f901571461035e5780639528d4e91461037e578063957bb1e014610393578063a6e66477146103a657600080fd5b806338af3eed1161010857806338af3eed146102555780633ccfd60b1461028d578063423b217f146102a25780634d21e019146102b857806351dcb1c3146102f35780637c0fdd291461030857600080fd5b806301495c1c146101505780630162d12e1461018a578063022a6fae146101bb57806312fa6feb146101df578063150b7a02146101f95780632a24f46c1461023e575b600080fd5b34801561015c57600080fd5b5061017061016b366004610fda565b610472565b604080519283526020830191909152015b60405180910390f35b34801561019657600080fd5b50600a546101ab90600160a01b900460ff1681565b6040519015158152602001610181565b3480156101c757600080fd5b506101d160015481565b604051908152602001610181565b3480156101eb57600080fd5b506004546101ab9060ff1681565b34801561020557600080fd5b50610225610214366004610f3b565b630a85bd0160e11b95945050505050565b6040516001600160e01b03199091168152602001610181565b34801561024a57600080fd5b506102536104ae565b005b34801561026157600080fd5b50600054610275906001600160a01b031681565b6040516001600160a01b039091168152602001610181565b34801561029957600080fd5b5061025361081b565b3480156102ae57600080fd5b506101d160025481565b3480156102c457600080fd5b506102cd61086c565b60408051931515845260208401929092526001600160a01b031690820152606001610181565b3480156102ff57600080fd5b506101d161091e565b34801561031457600080fd5b506102536103233660046110c2565b610951565b34801561033457600080fd5b506101d160095481565b34801561034a57600080fd5b50610253610359366004611006565b6109d6565b34801561036a57600080fd5b50600654610275906001600160a01b031681565b34801561038a57600080fd5b506101d1610ce5565b6102536103a13660046110c2565b610d04565b3480156103b257600080fd5b506101d160035481565b3480156103c857600080fd5b50600b54610275906001600160a01b031681565b3480156103e857600080fd5b50600a54610275906001600160a01b031681565b34801561040857600080fd5b506101d160075481565b34801561041e57600080fd5b506101d1610dd6565b34801561043357600080fd5b506101d1610442366004610efa565b6001600160a01b031660009081526005602052604090205490565b34801561046957600080fd5b506101d1610df5565b6005602052816000526040600020818154811061048e57600080fd5b600091825260209091206002909102018054600190910154909250905082565b6003548042116104d957604051630a8d68c960e21b8152600481018290526024015b60405180910390fd5b60045460ff16156104fd57604051630c39fb9f60e31b815260040160405180910390fd5b600654600754600954604080516001600160a01b039094168452602084019290925282820152517fc358e8e3f205b5e7453abd5cbac388ca4552b887b69001bc972b88610c7490359181900360600190a16004805460ff19166001179055600a54600160a01b900460ff16801561057e57506006546001600160a01b031615155b156106a557600a546006546009546040516323b872dd60e01b81523060048201526001600160a01b03928316602482015260448101919091529116906323b872dd90606401600060405180830381600087803b1580156105dd57600080fd5b505af11580156105f1573d6000803e3d6000fd5b50506006546009546040516001600160a01b039092169350309250907f67043fac5fd2bf9edbb46ee495aaed7f97f91d43507d373be2b592af19b8c0a890600090a4600b546009546006546040516362c0dd2760e01b815260048101929092526001600160a01b039081166024830152909116906362c0dd2790604401600060405180830381600087803b15801561068857600080fd5b505af115801561069c573d6000803e3d6000fd5b505050506107d3565b600a54600160a01b900460ff16156107d357600a546000546009546040516323b872dd60e01b81523060048201526001600160a01b03928316602482015260448101919091529116906323b872dd90606401600060405180830381600087803b15801561071157600080fd5b505af1158015610725573d6000803e3d6000fd5b5050600080546009546040516001600160a01b039092169450309350917f67043fac5fd2bf9edbb46ee495aaed7f97f91d43507d373be2b592af19b8c0a891a4600b546009546000546040516362c0dd2760e01b815260048101929092526001600160a01b039081166024830152909116906362c0dd2790604401600060405180830381600087803b1580156107ba57600080fd5b505af11580156107ce573d6000803e3d6000fd5b505050505b6007541561081857600080546007546040516001600160a01b039092169281156108fc029290818181858888f19350505050158015610816573d6000803e3d6000fd5b505b50565b33600090815260086020526040902054801561081857336000818152600860205260408082208290555183156108fc0291849190818181858888f19350505050158015610816573d6000803e3d6000fd5b600a54600954600160a01b90910460ff16906000821561091657600a546009546040516331a9108f60e11b81526001600160a01b0390921691636352211e916108bb9160040190815260200190565b60206040518083038186803b1580156108d357600080fd5b505afa925050508015610903575060408051601f3d908101601f1916820190925261090091810190610f1e565b60015b61090f57506000909192565b9050909192565b506000909192565b6000600254421161092f5750600090565b600354421061093e5750600090565b4260035461094c919061112a565b905090565b600b546001600160a01b031633146109b55760405162461bcd60e51b815260206004820152602160248201527f4f6e6c7920666163746f72792063616e20736574204e465420746f6b656e20496044820152601160fa1b60648201526084016104d0565b6009819055600a805460ff60a01b1916911515600160a01b02919091179055565b6002548042116109fc57604051630a8d68c960e21b8152600481018290526024016104d0565b600354804210610a225760405163348f2b4160e11b8152600481018290526024016104d0565b33600090815260056020526040902054878114610a515760405162461bcd60e51b81526004016104d0906110db565b858114610a705760405162461bcd60e51b81526004016104d0906110db565b838114610a8f5760405162461bcd60e51b81526004016104d0906110db565b6000805b82811015610cad57336000908152600560205260408120805483908110610abc57610abc611172565b9060005260206000209060020201905060008060008e8e86818110610ae357610ae3611172565b905060200201358d8d87818110610afc57610afc611172565b9050602002016020810190610b1191906110a0565b8c8c88818110610b2357610b23611172565b90506020020135925092509250828282604051602001610b599392919092835290151560f81b6020830152602182015260410190565b60405160208183030381529060405280519060200120846000015414610b825750505050610c9b565b6001840154610b919087611112565b955081158015610ba5575082846001015410155b15610c5157610bb43384610e2d565b15610c1057610bc3838761112a565b60408051338152602081018690526001918101919091529096507f9c2d1dff1e244149eef8b49255674d40752acd825b23d4ad303807f98fe59532906060015b60405180910390a1610c92565b60408051338152602081018590526000918101919091527f9c2d1dff1e244149eef8b49255674d40752acd825b23d4ad303807f98fe5953290606001610c03565b604080513381526000602082018190528183015290517f9c2d1dff1e244149eef8b49255674d40752acd825b23d4ad303807f98fe595329181900360600190a15b50506000909155505b80610ca581611141565b915050610a93565b508015610cd9573360009081526008602052604081208054839290610cd3908490611112565b90915550505b50505050505050505050565b60006001544210610cf65750600090565b4260015461094c919061112a565b600154804211610d2a57604051630a8d68c960e21b8152600481018290526024016104d0565b600254804210610d505760405163348f2b4160e11b8152600481018290526024016104d0565b33600081815260056020908152604080832081518083018352888152348185018181528354600180820186559488529686902092516002909702909201958655905194909101939093558051938452908301919091527f0862512267aa2317caa9475b7e771425e6b897509aade0be0d8fc6f5ce5fdd18910160405180910390a1505050565b60006002544210610de75750600090565b4260025461094c919061112a565b6000600154421015610e075750600090565b600254421015610e175750600190565b600354421015610e275750600290565b50600390565b60006007548211610e4057506000610ea8565b6006546001600160a01b031615610e84576007546006546001600160a01b031660009081526008602052604081208054909190610e7e908490611112565b90915550505b506007819055600680546001600160a01b0319166001600160a01b03841617905560015b92915050565b60008083601f840112610ec057600080fd5b50813567ffffffffffffffff811115610ed857600080fd5b6020830191508360208260051b8501011115610ef357600080fd5b9250929050565b600060208284031215610f0c57600080fd5b8135610f1781611188565b9392505050565b600060208284031215610f3057600080fd5b8151610f1781611188565b600080600080600060808688031215610f5357600080fd5b8535610f5e81611188565b94506020860135610f6e81611188565b935060408601359250606086013567ffffffffffffffff80821115610f9257600080fd5b818801915088601f830112610fa657600080fd5b813581811115610fb557600080fd5b896020828501011115610fc757600080fd5b9699959850939650602001949392505050565b60008060408385031215610fed57600080fd5b8235610ff881611188565b946020939093013593505050565b6000806000806000806060878903121561101f57600080fd5b863567ffffffffffffffff8082111561103757600080fd5b6110438a838b01610eae565b9098509650602089013591508082111561105c57600080fd5b6110688a838b01610eae565b9096509450604089013591508082111561108157600080fd5b5061108e89828a01610eae565b979a9699509497509295939492505050565b6000602082840312156110b257600080fd5b81358015158114610f1757600080fd5b6000602082840312156110d457600080fd5b5035919050565b6020808252601a908201527f4172726179206c656e6774687320646f206e6f74206d61746368000000000000604082015260600190565b600082198211156111255761112561115c565b500190565b60008282101561113c5761113c61115c565b500390565b60006000198214156111555761115561115c565b5060010190565b634e487b7160e01b600052601160045260246000fd5b634e487b7160e01b600052603260045260246000fd5b6001600160a01b038116811461081857600080fdfea2646970667358221220f9d36b40774b14694e12ca2b10e662b4f190545f22fa44d32a364399b2de3ba364736f6c63430008050033",
  "devdoc": {
    "kind": "dev",
    "methods": {
      "bid(bytes32)": {
        "params": {
          "blindedBid": "keccak256(value, fake, secret)"
        }
      },
      "constructor": {
        "params": {
          "_nftContract": "NFT",
          "_nftTokenId": "NFT ID0",
          "beneficiaryAddress": "",
          "biddingTime": "",
          "revealTime": "",
          "startTime": ""
        }
      },
      "getAuctionPhase()": {
        "returns": {
          "_0": "0- 1- 2- 3-"
        }
      },
      "getNFTInfo()": {
        "returns": {
          "isNFT": "NFT",
          "nftOwner": "NFT",
          "tokenId": "NFT ID"
        }
      },
      "onERC721Received(address,address,uint256,bytes)": {
        "returns": {
          "_0": "bytes4 "
        }
      },
      "reveal(uint256[],bool[],bytes32[])": {
        "params": {
          "fakes": "true ",
          "secrets": "",
          "values": ""
        }
      },
      "setNFTTokenId(uint256)": {
        "params": {
          "_nftTokenId": "NFT Token ID"
        }
      }
    },
    "title": "Blind Auction",
    "version": 1
  },
  "userdoc": {
    "kind": "user",
    "methods": {
      "auctionEnd()": {
        "notice": "NFT"
      },
      "bid(bytes32)": {
        "notice": ""
      },
      "biddingStartTimeLeft()": {
        "notice": ""
      },
      "biddingTimeLeft()": {
        "notice": ""
      },
      "constructor": {
        "notice": "NFT"
      },
      "getAuctionPhase()": {
        "notice": ""
      },
      "getBidCount(address)": {
        "notice": ""
      },
      "getNFTInfo()": {
        "notice": "NFT"
      },
      "onERC721Received(address,address,uint256,bytes)": {
        "notice": "IERC721ReceiverNFT"
      },
      "reveal(uint256[],bool[],bytes32[])": {
        "notice": ""
      },
      "revealTimeLeft()": {
        "notice": ""
      },
      "setNFTTokenId(uint256)": {
        "notice": "NFT Token ID"
      },
      "withdraw()": {
        "notice": ""
      }
    },
    "notice": "NFT    ",
    "version": 1
  },
  "storageLayout": {
    "storage": [
      {
        "astId": 3369,
        "contract": "contracts/BlindAuction.sol:BlindAuction",
        "label": "beneficiary",
        "offset": 0,
        "slot": "0",
        "type": "t_address_payable"
      },
      {
        "astId": 3371,
        "contract": "contracts/BlindAuction.sol:BlindAuction",
        "label": "biddingStart",
        "offset": 0,
        "slot": "1",
        "type": "t_uint256"
      },
      {
        "astId": 3373,
        "contract": "contracts/BlindAuction.sol:BlindAuction",
        "label": "biddingEnd",
        "offset": 0,
        "slot": "2",
        "type": "t_uint256"
      },
      {
        "astId": 3375,
        "contract": "contracts/BlindAuction.sol:BlindAuction",
        "label": "revealEnd",
        "offset": 0,
        "slot": "3",
        "type": "t_uint256"
      },
      {
        "astId": 3377,
        "contract": "contracts/BlindAuction.sol:BlindAuction",
        "label": "ended",
        "offset": 0,
        "slot": "4",
        "type": "t_bool"
      },
      {
        "astId": 3383,
        "contract": "contracts/BlindAuction.sol:BlindAuction",
        "label": "bids",
        "offset": 0,
        "slot": "5",
        "type": "t_mapping(t_address,t_array(t_struct(Bid)3367_storage)dyn_storage)"
      },
      {
        "astId": 3385,
        "contract": "contracts/BlindAuction.sol:BlindAuction",
        "label": "highestBidder",
        "offset": 0,
        "slot": "6",
        "type": "t_address"
      },
      {
        "astId": 3387,
        "contract": "contracts/BlindAuction.sol:BlindAuction",
        "label": "highestBid",
        "offset": 0,
        "slot": "7",
        "type": "t_uint256"
      },
      {
        "astId": 3391,
        "contract": "contracts/BlindAuction.sol:BlindAuction",
        "label": "pendingReturns",
        "offset": 0,
        "slot": "8",
        "type": "t_mapping(t_address,t_uint256)"
      },
      {
        "astId": 3393,
        "contract": "contracts/BlindAuction.sol:BlindAuction",
        "label": "nftTokenId",
        "offset": 0,
        "slot": "9",
        "type": "t_uint256"
      },
      {
        "astId": 3396,
        "contract": "contracts/BlindAuction.sol:BlindAuction",
        "label": "nftContract",
        "offset": 0,
        "slot": "10",
        "type": "t_contract(AuctionNFT)3346"
      },
      {
        "astId": 3398,
        "contract": "contracts/BlindAuction.sol:BlindAuction",
        "label": "isNFTAuction",
        "offset": 20,
        "slot": "10",
        "type": "t_bool"
      },
      {
        "astId": 3400,
        "contract": "contracts/BlindAuction.sol:BlindAuction",
        "label": "factory",
        "offset": 0,
        "slot": "11",
        "type": "t_address"
      }
    ],
    "types": {
      "t_address": {
        "encoding": "inplace",
        "label": "address",
        "numberOfBytes": "20"
      },
      "t_address_payable": {
        "encoding": "inplace",
        "label": "address payable",
        "numberOfBytes": "20"
      },
      "t_array(t_struct(Bid)3367_storage)dyn_storage": {
        "base": "t_struct(Bid)3367_storage",
        "encoding": "dynamic_array",
        "label": "struct BlindAuction.Bid[]",
        "numberOfBytes": "32"
      },
      "t_bool": {
        "encoding": "inplace",
        "label": "bool",
        "numberOfBytes": "1"
      },
      "t_bytes32": {
        "encoding": "inplace",
        "label": "bytes32",
        "numberOfBytes": "32"
      },
      "t_contract(AuctionNFT)3346": {
        "encoding": "inplace",
        "label": "contract AuctionNFT",
        "numberOfBytes": "20"
      },
      "t_mapping(t_address,t_array(t_struct(Bid)3367_storage)dyn_storage)": {
        "encoding": "mapping",
        "key": "t_address",
        "label": "mapping(address => struct BlindAuction.Bid[])",
        "numberOfBytes": "32",
        "value": "t_array(t_struct(Bid)3367_storage)dyn_storage"
      },
      "t_mapping(t_address,t_uint256)": {
        "encoding": "mapping",
        "key": "t_address",
        "label": "mapping(address => uint256)",
        "numberOfBytes": "32",
        "value": "t_uint256"
      },
      "t_struct(Bid)3367_storage": {
        "encoding": "inplace",
        "label": "struct BlindAuction.Bid",
        "members": [
          {
            "astId": 3364,
            "contract": "contracts/BlindAuction.sol:BlindAuction",
            "label": "blindedBid",
            "offset": 0,
            "slot": "0",
            "type": "t_bytes32"
          },
          {
            "astId": 3366,
            "contract": "contracts/BlindAuction.sol:BlindAuction",
            "label": "deposit",
            "offset": 0,
            "slot": "1",
            "type": "t_uint256"
          }
        ],
        "numberOfBytes": "64"
      },
      "t_uint256": {
        "encoding": "inplace",
        "label": "uint256",
        "numberOfBytes": "32"
      }
    }
  }
}