{
  "address": "0x52012756898794F1427047Cb6c3C3fc4099f61a4",
  "abi": [
    {
      "anonymous": false,
      "inputs": [
        {
          "indexed": true,
          "internalType": "address",
          "name": "auctionAddress",
          "type": "address"
        },
        {
          "indexed": true,
          "internalType": "address",
          "name": "beneficiary",
          "type": "address"
        },
        {
          "indexed": false,
          "internalType": "uint256",
          "name": "biddingStart",
          "type": "uint256"
        },
        {
          "indexed": false,
          "internalType": "uint256",
          "name": "biddingEnd",
          "type": "uint256"
        },
        {
          "indexed": false,
          "internalType": "uint256",
          "name": "revealEnd",
          "type": "uint256"
        },
        {
          "indexed": false,
          "internalType": "string",
          "name": "metadata",
          "type": "string"
        }
      ],
      "name": "AuctionCreated",
      "type": "event"
    },
    {
      "inputs": [
        {
          "internalType": "uint256",
          "name": "",
          "type": "uint256"
        }
      ],
      "name": "allAuctions",
      "outputs": [
        {
          "internalType": "address",
          "name": "",
          "type": "address"
        }
      ],
      "stateMutability": "view",
      "type": "function"
    },
    {
      "inputs": [
        {
          "internalType": "uint256",
          "name": "startTime",
          "type": "uint256"
        },
        {
          "internalType": "uint256",
          "name": "biddingTime",
          "type": "uint256"
        },
        {
          "internalType": "uint256",
          "name": "revealTime",
          "type": "uint256"
        },
        {
          "internalType": "string",
          "name": "metadata",
          "type": "string"
        }
      ],
      "name": "createAuction",
      "outputs": [
        {
          "internalType": "address",
          "name": "",
          "type": "address"
        }
      ],
      "stateMutability": "nonpayable",
      "type": "function"
    },
    {
      "inputs": [],
      "name": "getAuctionCount",
      "outputs": [
        {
          "internalType": "uint256",
          "name": "",
          "type": "uint256"
        }
      ],
      "stateMutability": "view",
      "type": "function"
    },
    {
      "inputs": [
        {
          "internalType": "uint256",
          "name": "offset",
          "type": "uint256"
        },
        {
          "internalType": "uint256",
          "name": "limit",
          "type": "uint256"
        }
      ],
      "name": "getAuctions",
      "outputs": [
        {
          "internalType": "address[]",
          "name": "",
          "type": "address[]"
        }
      ],
      "stateMutability": "view",
      "type": "function"
    },
    {
      "inputs": [
        {
          "internalType": "address",
          "name": "user",
          "type": "address"
        }
      ],
      "name": "getUserAuctions",
      "outputs": [
        {
          "internalType": "address[]",
          "name": "",
          "type": "address[]"
        }
      ],
      "stateMutability": "view",
      "type": "function"
    },
    {
      "inputs": [
        {
          "internalType": "address",
          "name": "",
          "type": "address"
        },
        {
          "internalType": "uint256",
          "name": "",
          "type": "uint256"
        }
      ],
      "name": "userAuctions",
      "outputs": [
        {
          "internalType": "address",
          "name": "",
          "type": "address"
        }
      ],
      "stateMutability": "view",
      "type": "function"
    }
  ],
  "transactionHash": "0x0d2460ee1069db353113eb24d66830f7b2c409ec59ce68446f254ee67e1634eb",
  "args": [],
  "numDeployments": 1,
  "solcInputHash": "4c4d831c6204608c3a71f27b61bacccf",
  "bytecode": "0x608060405234801561001057600080fd5b50611414806100206000396000f3fe608060405234801561001057600080fd5b50600436106100625760003560e01c806315cda1af14610067578063165c588114610097578063b4fbe80a146100aa578063c44e6640146100bd578063ceb6a22f146100ce578063ff3ad0b4146100ee575b600080fd5b61007a6100753660046104ce565b610101565b6040516001600160a01b0390911681526020015b60405180910390f35b61007a6100a5366004610493565b610232565b61007a6100b8366004610469565b61025c565b60015460405190815260200161008e565b6100e16100dc3660046104ac565b610294565b60405161008e919061059c565b6100e16100fc366004610447565b6103aa565b600080858585336040516101149061041e565b938452602084019290925260408301526001600160a01b03166060820152608001604051809103906000f080158015610151573d6000803e3d6000fd5b5033600081815260208181526040822080546001818101835591845291832090910180546001600160a01b0386166001600160a01b0319918216811790925582548084018455929093527fb10e2d527612073b26eecdfd717e6a320cf44b4afac2b0732d9fcbe2b7fa0cf69091018054909216811790915591925082917fc4cf2d584e85f1bda21e8642b3655c3a8a1addcd145bf011ab558f2d775cdece896101fa8a82610654565b896102058c8e610654565b61020f9190610654565b8960405161022094939291906105e9565b60405180910390a39695505050505050565b6001818154811061024257600080fd5b6000918252602090912001546001600160a01b0316905081565b6000602052816000526040600020818154811061027857600080fd5b6000918252602090912001546001600160a01b03169150829050565b6001546060908084106102b75750506040805160008152602081019091526103a4565b82816102c38287610654565b11156102d6576102d3858361066c565b90505b60008167ffffffffffffffff8111156102f1576102f16106ca565b60405190808252806020026020018201604052801561031a578160200160208202803683370190505b50905060005b8281101561039e5760016103348289610654565b81548110610344576103446106b4565b9060005260206000200160009054906101000a90046001600160a01b0316828281518110610374576103746106b4565b6001600160a01b03909216602092830291909101909101528061039681610683565b915050610320565b50925050505b92915050565b6001600160a01b0381166000908152602081815260409182902080548351818402810184019094528084526060939283018282801561041257602002820191906000526020600020905b81546001600160a01b031681526001909101906020018083116103f4575b50505050509050919050565b610cfe806106e183390190565b80356001600160a01b038116811461044257600080fd5b919050565b60006020828403121561045957600080fd5b6104628261042b565b9392505050565b6000806040838503121561047c57600080fd5b6104858361042b565b946020939093013593505050565b6000602082840312156104a557600080fd5b5035919050565b600080604083850312156104bf57600080fd5b50508035926020909101359150565b600080600080608085870312156104e457600080fd5b843593506020850135925060408501359150606085013567ffffffffffffffff8082111561051157600080fd5b818701915087601f83011261052557600080fd5b813581811115610537576105376106ca565b604051601f8201601f19908116603f0116810190838211818310171561055f5761055f6106ca565b816040528281528a602084870101111561057857600080fd5b82602086016020830137600060208483010152809550505050505092959194509250565b6020808252825182820181905260009190848201906040850190845b818110156105dd5783516001600160a01b0316835292840192918401916001016105b8565b50909695505050505050565b84815260006020858184015284604084015260806060840152835180608085015260005b818110156106295785810183015185820160a00152820161060d565b8181111561063b57600060a083870101525b50601f01601f19169290920160a0019695505050505050565b600082198211156106675761066761069e565b500190565b60008282101561067e5761067e61069e565b500390565b60006000198214156106975761069761069e565b5060010190565b634e487b7160e01b600052601160045260246000fd5b634e487b7160e01b600052603260045260246000fd5b634e487b7160e01b600052604160045260246000fdfe608060405234801561001057600080fd5b50604051610cfe380380610cfe83398101604081905261002f91610076565b600080546001600160a01b0319166001600160a01b038316179055600184905561005983856100c5565b60028190556100699083906100c5565b600355506100eb92505050565b6000806000806080858703121561008c57600080fd5b845160208601516040870151606088015192965090945092506001600160a01b03811681146100ba57600080fd5b939692955090935050565b600082198211156100e657634e487b7160e01b600052601160045260246000fd5b500190565b610c04806100fa6000396000f3fe6080604052600436106100fe5760003560e01c8063900f080a11610095578063a6e6647711610064578063a6e6647714610282578063d57bde7914610298578063e75f480c146102ae578063e8f9009a146102c3578063fc519f15146102f957600080fd5b8063900f080a1461021a57806391f901571461023a5780639528d4e91461025a578063957bb1e01461026f57600080fd5b806338af3eed116100d157806338af3eed146101a25780633ccfd60b146101da578063423b217f146101ef57806351dcb1c31461020557600080fd5b806301495c1c14610103578063022a6fae1461013d57806312fa6feb146101615780632a24f46c1461018b575b600080fd5b34801561010f57600080fd5b5061012361011e366004610a22565b61030e565b604080519283526020830191909152015b60405180910390f35b34801561014957600080fd5b5061015360015481565b604051908152602001610134565b34801561016d57600080fd5b5060045461017b9060ff1681565b6040519015158152602001610134565b34801561019757600080fd5b506101a061034a565b005b3480156101ae57600080fd5b506000546101c2906001600160a01b031681565b6040516001600160a01b039091168152602001610134565b3480156101e657600080fd5b506101a061042f565b3480156101fb57600080fd5b5061015360025481565b34801561021157600080fd5b50610153610483565b34801561022657600080fd5b506101a0610235366004610a4c565b6104b6565b34801561024657600080fd5b506006546101c2906001600160a01b031681565b34801561026657600080fd5b506101536107cf565b6101a061027d366004610b08565b6107ee565b34801561028e57600080fd5b5061015360035481565b3480156102a457600080fd5b5061015360075481565b3480156102ba57600080fd5b506101536108c0565b3480156102cf57600080fd5b506101536102de366004610a00565b6001600160a01b031660009081526005602052604090205490565b34801561030557600080fd5b506101536108df565b6005602052816000526040600020818154811061032a57600080fd5b600091825260209091206002909102018054600190910154909250905082565b60035480421161037557604051630a8d68c960e21b8152600481018290526024015b60405180910390fd5b60045460ff161561039957604051630c39fb9f60e31b815260040160405180910390fd5b600654600754604080516001600160a01b03909316835260208301919091527fdaec4582d5d9595688c8c98545fdd1c696d41c6aeaeb636737e84ed2f5c00eda910160405180910390a16004805460ff19166001179055600080546007546040516001600160a01b039092169281156108fc029290818181858888f1935050505015801561042b573d6000803e3d6000fd5b5050565b33600090815260086020526040902054801561048057336000818152600860205260408082208290555183156108fc0291849190818181858888f1935050505015801561042b573d6000803e3d6000fd5b50565b600060025442116104945750600090565b60035442106104a35750600090565b426003546104b19190610b70565b905090565b6002548042116104dc57604051630a8d68c960e21b81526004810182905260240161036c565b6003548042106105025760405163348f2b4160e11b81526004810182905260240161036c565b336000908152600560205260409020548781146105315760405162461bcd60e51b815260040161036c90610b21565b8581146105505760405162461bcd60e51b815260040161036c90610b21565b83811461056f5760405162461bcd60e51b815260040161036c90610b21565b6000805b8281101561078d5733600090815260056020526040812080548390811061059c5761059c610bb8565b9060005260206000209060020201905060008060008e8e868181106105c3576105c3610bb8565b905060200201358d8d878181106105dc576105dc610bb8565b90506020020160208101906105f19190610ae6565b8c8c8881811061060357610603610bb8565b905060200201359250925092508282826040516020016106399392919092835290151560f81b6020830152602182015260410190565b60405160208183030381529060405280519060200120846000015414610662575050505061077b565b60018401546106719087610b58565b955081158015610685575082846001015410155b15610731576106943384610917565b156106f0576106a38387610b70565b60408051338152602081018690526001918101919091529096507f9c2d1dff1e244149eef8b49255674d40752acd825b23d4ad303807f98fe59532906060015b60405180910390a1610772565b60408051338152602081018590526000918101919091527f9c2d1dff1e244149eef8b49255674d40752acd825b23d4ad303807f98fe59532906060016106e3565b604080513381526000602082018190528183015290517f9c2d1dff1e244149eef8b49255674d40752acd825b23d4ad303807f98fe595329181900360600190a15b50506000909155505b8061078581610b87565b915050610573565b5080156107c357604051339082156108fc029083906000818181858888f193505050501580156107c1573d6000803e3d6000fd5b505b50505050505050505050565b600060015442106107e05750600090565b426001546104b19190610b70565b60015480421161081457604051630a8d68c960e21b81526004810182905260240161036c565b60025480421061083a5760405163348f2b4160e11b81526004810182905260240161036c565b33600081815260056020908152604080832081518083018352888152348185018181528354600180820186559488529686902092516002909702909201958655905194909101939093558051938452908301919091527f0862512267aa2317caa9475b7e771425e6b897509aade0be0d8fc6f5ce5fdd18910160405180910390a1505050565b600060025442106108d15750600090565b426002546104b19190610b70565b60006001544210156108f15750600090565b6002544210156109015750600190565b6003544210156109115750600290565b50600390565b6000600754821161092a57506000610992565b6006546001600160a01b03161561096e576007546006546001600160a01b031660009081526008602052604081208054909190610968908490610b58565b90915550505b506007819055600680546001600160a01b0319166001600160a01b03841617905560015b92915050565b80356001600160a01b03811681146109af57600080fd5b919050565b60008083601f8401126109c657600080fd5b50813567ffffffffffffffff8111156109de57600080fd5b6020830191508360208260051b85010111156109f957600080fd5b9250929050565b600060208284031215610a1257600080fd5b610a1b82610998565b9392505050565b60008060408385031215610a3557600080fd5b610a3e83610998565b946020939093013593505050565b60008060008060008060608789031215610a6557600080fd5b863567ffffffffffffffff80821115610a7d57600080fd5b610a898a838b016109b4565b90985096506020890135915080821115610aa257600080fd5b610aae8a838b016109b4565b90965094506040890135915080821115610ac757600080fd5b50610ad489828a016109b4565b979a9699509497509295939492505050565b600060208284031215610af857600080fd5b81358015158114610a1b57600080fd5b600060208284031215610b1a57600080fd5b5035919050565b6020808252601a908201527f4172726179206c656e6774687320646f206e6f74206d61746368000000000000604082015260600190565b60008219821115610b6b57610b6b610ba2565b500190565b600082821015610b8257610b82610ba2565b500390565b6000600019821415610b9b57610b9b610ba2565b5060010190565b634e487b7160e01b600052601160045260246000fd5b634e487b7160e01b600052603260045260246000fdfea26469706673582212207e893d5b668f373f5cb47aceb5028e26425f3c6bf8a6e5e863e8e9b7f017399c64736f6c63430008050033a2646970667358221220e2fc2c4f0d99d3974916476266cd00ad6d2a494d29124e3c85e4b8a202db5dc964736f6c63430008050033",
  "devdoc": {
    "kind": "dev",
    "methods": {
      "createAuction(uint256,uint256,uint256,string)": {
        "params": {
          "biddingTime": "竞标阶段的持续时间（秒）",
          "metadata": "拍卖物品的元数据（JSON字符串）",
          "revealTime": "披露阶段的持续时间（秒）",
          "startTime": "竞标开始时间（时间戳）"
        },
        "returns": {
          "_0": "新创建的盲拍合约地址"
        }
      },
      "getAuctionCount()": {
        "returns": {
          "_0": "拍卖总数"
        }
      },
      "getAuctions(uint256,uint256)": {
        "params": {
          "limit": "每页数量",
          "offset": "起始索引"
        },
        "returns": {
          "_0": "拍卖地址数组"
        }
      },
      "getUserAuctions(address)": {
        "params": {
          "user": "用户地址"
        },
        "returns": {
          "_0": "该用户创建的所有盲拍合约地址数组"
        }
      }
    },
    "title": "盲拍工厂合约",
    "version": 1
  },
  "userdoc": {
    "kind": "user",
    "methods": {
      "createAuction(uint256,uint256,uint256,string)": {
        "notice": "创建新的盲拍合约"
      },
      "getAuctionCount()": {
        "notice": "获取所有创建的拍卖数量"
      },
      "getAuctions(uint256,uint256)": {
        "notice": "分页获取所有拍卖"
      },
      "getUserAuctions(address)": {
        "notice": "获取用户创建的所有拍卖"
      }
    },
    "notice": "用于创建和管理多个盲拍合约",
    "version": 1
  },
  "storageLayout": {
    "storage": [
      {
        "astId": 573,
        "contract": "contracts/BlindAuctionFactory.sol:BlindAuctionFactory",
        "label": "userAuctions",
        "offset": 0,
        "slot": "0",
        "type": "t_mapping(t_address,t_array(t_address)dyn_storage)"
      },
      {
        "astId": 576,
        "contract": "contracts/BlindAuctionFactory.sol:BlindAuctionFactory",
        "label": "allAuctions",
        "offset": 0,
        "slot": "1",
        "type": "t_array(t_address)dyn_storage"
      }
    ],
    "types": {
      "t_address": {
        "encoding": "inplace",
        "label": "address",
        "numberOfBytes": "20"
      },
      "t_array(t_address)dyn_storage": {
        "base": "t_address",
        "encoding": "dynamic_array",
        "label": "address[]",
        "numberOfBytes": "32"
      },
      "t_mapping(t_address,t_array(t_address)dyn_storage)": {
        "encoding": "mapping",
        "key": "t_address",
        "label": "mapping(address => address[])",
        "numberOfBytes": "32",
        "value": "t_array(t_address)dyn_storage"
      }
    }
  }
}