{
  "address": "0x38C68c3DF8088FA96B73aF2a090E1fd6f4F9418D",
  "abi": [
    {
      "inputs": [
        {
          "internalType": "address",
          "name": "_nftContract",
          "type": "address"
        }
      ],
      "stateMutability": "nonpayable",
      "type": "constructor"
    },
    {
      "anonymous": false,
      "inputs": [
        {
          "indexed": true,
          "internalType": "address",
          "name": "auctionAddress",
          "type": "address"
        },
        {
          "indexed": true,
          "internalType": "address",
          "name": "beneficiary",
          "type": "address"
        },
        {
          "indexed": false,
          "internalType": "uint256",
          "name": "biddingStart",
          "type": "uint256"
        },
        {
          "indexed": false,
          "internalType": "uint256",
          "name": "biddingEnd",
          "type": "uint256"
        },
        {
          "indexed": false,
          "internalType": "uint256",
          "name": "revealEnd",
          "type": "uint256"
        },
        {
          "indexed": false,
          "internalType": "string",
          "name": "metadata",
          "type": "string"
        },
        {
          "indexed": false,
          "internalType": "uint256",
          "name": "nftTokenId",
          "type": "uint256"
        }
      ],
      "name": "AuctionCreated",
      "type": "event"
    },
    {
      "anonymous": false,
      "inputs": [
        {
          "indexed": true,
          "internalType": "address",
          "name": "auctionAddress",
          "type": "address"
        },
        {
          "indexed": true,
          "internalType": "address",
          "name": "seller",
          "type": "address"
        },
        {
          "indexed": true,
          "internalType": "uint256",
          "name": "nftTokenId",
          "type": "uint256"
        },
        {
          "indexed": false,
          "internalType": "uint256",
          "name": "minPrice",
          "type": "uint256"
        }
      ],
      "name": "NFTResaleCreated",
      "type": "event"
    },
    {
      "inputs": [
        {
          "internalType": "uint256",
          "name": "",
          "type": "uint256"
        }
      ],
      "name": "allAuctions",
      "outputs": [
        {
          "internalType": "address",
          "name": "",
          "type": "address"
        }
      ],
      "stateMutability": "view",
      "type": "function"
    },
    {
      "inputs": [
        {
          "internalType": "uint256",
          "name": "startTime",
          "type": "uint256"
        },
        {
          "internalType": "uint256",
          "name": "biddingTime",
          "type": "uint256"
        },
        {
          "internalType": "uint256",
          "name": "revealTime",
          "type": "uint256"
        },
        {
          "internalType": "string",
          "name": "metadata",
          "type": "string"
        }
      ],
      "name": "createAuction",
      "outputs": [
        {
          "internalType": "address",
          "name": "",
          "type": "address"
        }
      ],
      "stateMutability": "nonpayable",
      "type": "function"
    },
    {
      "inputs": [
        {
          "internalType": "uint256",
          "name": "startTime",
          "type": "uint256"
        },
        {
          "internalType": "uint256",
          "name": "biddingTime",
          "type": "uint256"
        },
        {
          "internalType": "uint256",
          "name": "revealTime",
          "type": "uint256"
        },
        {
          "internalType": "string",
          "name": "metadata",
          "type": "string"
        },
        {
          "components": [
            {
              "internalType": "string",
              "name": "name",
              "type": "string"
            },
            {
              "internalType": "string",
              "name": "description",
              "type": "string"
            },
            {
              "internalType": "string",
              "name": "imageHash",
              "type": "string"
            },
            {
              "internalType": "uint256",
              "name": "minPrice",
              "type": "uint256"
            },
            {
              "internalType": "string",
              "name": "tokenURI",
              "type": "string"
            }
          ],
          "internalType": "struct NFTCreationData",
          "name": "nftMetadata",
          "type": "tuple"
        }
      ],
      "name": "createNFTAuction",
      "outputs": [
        {
          "internalType": "address",
          "name": "auctionAddress",
          "type": "address"
        },
        {
          "internalType": "uint256",
          "name": "nftTokenId",
          "type": "uint256"
        }
      ],
      "stateMutability": "nonpayable",
      "type": "function"
    },
    {
      "inputs": [],
      "name": "getAuctionCount",
      "outputs": [
        {
          "internalType": "uint256",
          "name": "",
          "type": "uint256"
        }
      ],
      "stateMutability": "view",
      "type": "function"
    },
    {
      "inputs": [
        {
          "internalType": "uint256",
          "name": "start",
          "type": "uint256"
        },
        {
          "internalType": "uint256",
          "name": "count",
          "type": "uint256"
        }
      ],
      "name": "getAuctions",
      "outputs": [
        {
          "internalType": "address[]",
          "name": "",
          "type": "address[]"
        }
      ],
      "stateMutability": "view",
      "type": "function"
    },
    {
      "inputs": [
        {
          "internalType": "uint256",
          "name": "nftTokenId",
          "type": "uint256"
        }
      ],
      "name": "getNFTAuction",
      "outputs": [
        {
          "internalType": "address",
          "name": "",
          "type": "address"
        }
      ],
      "stateMutability": "view",
      "type": "function"
    },
    {
      "inputs": [
        {
          "internalType": "address",
          "name": "user",
          "type": "address"
        }
      ],
      "name": "getUserAuctions",
      "outputs": [
        {
          "internalType": "address[]",
          "name": "",
          "type": "address[]"
        }
      ],
      "stateMutability": "view",
      "type": "function"
    },
    {
      "inputs": [],
      "name": "nftContract",
      "outputs": [
        {
          "internalType": "contract AuctionNFT",
          "name": "",
          "type": "address"
        }
      ],
      "stateMutability": "view",
      "type": "function"
    },
    {
      "inputs": [
        {
          "internalType": "uint256",
          "name": "",
          "type": "uint256"
        }
      ],
      "name": "nftToAuction",
      "outputs": [
        {
          "internalType": "address",
          "name": "",
          "type": "address"
        }
      ],
      "stateMutability": "view",
      "type": "function"
    },
    {
      "inputs": [
        {
          "internalType": "uint256",
          "name": "nftTokenId",
          "type": "uint256"
        },
        {
          "internalType": "address",
          "name": "winner",
          "type": "address"
        }
      ],
      "name": "notifyAuctionEnded",
      "outputs": [],
      "stateMutability": "nonpayable",
      "type": "function"
    },
    {
      "inputs": [
        {
          "internalType": "uint256",
          "name": "nftTokenId",
          "type": "uint256"
        },
        {
          "internalType": "uint256",
          "name": "startTime",
          "type": "uint256"
        },
        {
          "internalType": "uint256",
          "name": "biddingTime",
          "type": "uint256"
        },
        {
          "internalType": "uint256",
          "name": "revealTime",
          "type": "uint256"
        },
        {
          "internalType": "uint256",
          "name": "minPrice",
          "type": "uint256"
        }
      ],
      "name": "resellNFT",
      "outputs": [
        {
          "internalType": "address",
          "name": "auctionAddress",
          "type": "address"
        }
      ],
      "stateMutability": "nonpayable",
      "type": "function"
    },
    {
      "inputs": [
        {
          "internalType": "address",
          "name": "",
          "type": "address"
        },
        {
          "internalType": "uint256",
          "name": "",
          "type": "uint256"
        }
      ],
      "name": "userAuctions",
      "outputs": [
        {
          "internalType": "address",
          "name": "",
          "type": "address"
        }
      ],
      "stateMutability": "view",
      "type": "function"
    }
  ],
  "transactionHash": "0xb7f57d5377d3635ee0c568dfa44392dbe7a989309a29803bf76c0a14c424fb65",
  "args": [
    "0x39a693aeD7Ee5F7cc965c49a25F354B5F7Be397A"
  ],
  "numDeployments": 2,
  "solcInputHash": "24d6194a5475c9db93ccec9ed43d6a61",
  "bytecode": "0x608060405234801561001057600080fd5b5060405161262038038061262083398101604081905261002f91610054565b600080546001600160a01b0319166001600160a01b0392909216919091179055610084565b60006020828403121561006657600080fd5b81516001600160a01b038116811461007d57600080fd5b9392505050565b61258d806100936000396000f3fe60806040523480156200001157600080fd5b5060043610620000c35760003560e01c8063b4fbe80a116200007a578063b4fbe80a14620001bb578063c44e664014620001d2578063ceb6a22f14620001e4578063d56d229d146200020a578063fdc40a50146200021e578063ff3ad0b4146200023557600080fd5b80630e17f44a14620000c857806315cda1af1462000111578063165c5881146200012857806338a97f97146200013f57806362c0dd27146200016b5780638f5bf37d1462000184575b600080fd5b620000f4620000d936600462000d31565b6003602052600090815260409020546001600160a01b031681565b6040516001600160a01b0390911681526020015b60405180910390f35b620000f46200012236600462000dbb565b6200024c565b620000f46200013936600462000d31565b6200037d565b620000f46200015036600462000d31565b6000908152600360205260409020546001600160a01b031690565b620001826200017c36600462000d65565b620003a8565b005b6200019b6200019536600462000e19565b62000480565b604080516001600160a01b03909316835260208301919091520162000108565b620000f4620001cc36600462000d02565b62000745565b60025460405190815260200162000108565b620001fb620001f536600462000d98565b6200077e565b60405162000108919062001059565b600054620000f4906001600160a01b031681565b620000f46200022f36600462000f54565b620008d6565b620001fb6200024636600462000cbb565b62000ba0565b60008085858533600080604051620002649062000c18565b6200027596959493929190620010a8565b604051809103906000f08015801562000292573d6000803e3d6000fd5b503360008181526001602081815260408320805480840182559084529083200180546001600160a01b0386166001600160a01b031991821681179092556002805493840181559093527f405787fa12a823e0f2b7631cc41b3ba8828b3321ca811111fa75cd3aa3bb5ace9091018054909216811790915591925082917f57cd66c51c792c23481870e9e9a53acc9f3b0ac50ec3ecb2976ad302c358eb88896200033c8a8262001144565b89620003498c8e62001144565b62000355919062001144565b8960006040516200036b959493929190620010df565b60405180910390a39695505050505050565b600281815481106200038e57600080fd5b6000918252602090912001546001600160a01b0316905081565b6000828152600360205260409020546001600160a01b03163314620004145760405162461bcd60e51b815260206004820152601860248201527f496e76616c69642061756374696f6e20636f6e7472616374000000000000000060448201526064015b60405180910390fd5b600054604051637d47a19760e01b8152600481018490526001600160a01b03838116602483015290911690637d47a19790604401600060405180830381600087803b1580156200046357600080fd5b505af115801562000478573d6000803e3d6000fd5b505050505050565b60008060008787873360008060009054906101000a90046001600160a01b0316604051620004ae9062000c18565b620004bf96959493929190620010a8565b604051809103906000f080158015620004dc573d6000803e3d6000fd5b506000548551602087015160408089015160608a015160808b0151925163a223f7ef60e01b81529699508997506001600160a01b039095169563a223f7ef9562000530958995909490939260040162000fe0565b602060405180830381600087803b1580156200054b57600080fd5b505af115801562000560573d6000803e3d6000fd5b505050506040513d601f19601f8201168201806040525081019062000586919062000d4b565b604051637c0fdd2960e01b8152600481018290529092506001600160a01b03821690637c0fdd2990602401600060405180830381600087803b158015620005cc57600080fd5b505af1158015620005e1573d6000803e3d6000fd5b5050600054604051634d9615dd60e11b8152600481018690526001600160a01b0387811660248301529091169250639b2c2bba9150604401600060405180830381600087803b1580156200063457600080fd5b505af115801562000649573d6000803e3d6000fd5b5050336000818152600160208181526040808420805480850182559085528285200180546001600160a01b038c166001600160a01b031991821681179092556002805495860190557f405787fa12a823e0f2b7631cc41b3ba8828b3321ca811111fa75cd3aa3bb5ace9094018054851682179055898552600390925290922080549091168217905590925090507f57cd66c51c792c23481870e9e9a53acc9f3b0ac50ec3ecb2976ad302c358eb888a620007048b8262001144565b8a620007118d8f62001144565b6200071d919062001144565b8a8860405162000732959493929190620010df565b60405180910390a3509550959350505050565b600160205281600052604060002081815481106200076257600080fd5b6000918252602090912001546001600160a01b03169150829050565b600254606090620007bf5760005b604051908082528060200260200182016040528015620007b6578160200160208202803683370190505b509050620008d0565b6002548310620007d15760006200078c565b6000620007df838562001144565b600254909150811115620007f257506002545b60006200080085836200115f565b67ffffffffffffffff8111156200081b576200081b620011c3565b60405190808252806020026020018201604052801562000845578160200160208202803683370190505b509050845b82811015620008cb5760028181548110620008695762000869620011ad565b6000918252602090912001546001600160a01b0316826200088b88846200115f565b815181106200089e576200089e620011ad565b6001600160a01b039092166020928302919091019091015280620008c28162001179565b9150506200084a565b509150505b92915050565b600080546040516331a9108f60e11b81526004810188905233916001600160a01b031690636352211e9060240160206040518083038186803b1580156200091c57600080fd5b505afa15801562000931573d6000803e3d6000fd5b505050506040513d601f19601f8201168201806040525081019062000957919062000ce2565b6001600160a01b0316146200099f5760405162461bcd60e51b815260206004820152600d60248201526c2737ba1027232a1037bbb732b960991b60448201526064016200040b565b6000858585338a60008054906101000a90046001600160a01b0316604051620009c89062000c18565b620009d996959493929190620010a8565b604051809103906000f080158015620009f6573d6000803e3d6000fd5b506000546040516323b872dd60e01b81523360048201526001600160a01b038084166024830152604482018b90529294508493509116906323b872dd90606401600060405180830381600087803b15801562000a5157600080fd5b505af115801562000a66573d6000803e3d6000fd5b5050600054604051634e58019160e11b8152600481018b90526001600160a01b038681166024830152604482018890529091169250639cb003229150606401600060405180830381600087803b15801562000ac057600080fd5b505af115801562000ad5573d6000803e3d6000fd5b5050336000818152600160208181526040808420805480850182559085528285200180546001600160a01b038b166001600160a01b031991821681179092556002805495860190557f405787fa12a823e0f2b7631cc41b3ba8828b3321ca811111fa75cd3aa3bb5ace90940180548516821790558e855260038352938190208054909316841790925590518881528c955092935090917f1b382bba1a2ce7d34365a4ef9b1e25416c03fcec29444362a0d5620eb1466015910160405180910390a45095945050505050565b6001600160a01b03811660009081526001602090815260409182902080548351818402810184019094528084526060939283018282801562000c0c57602002820191906000526020600020905b81546001600160a01b0316815260019091019060200180831162000bed575b50505050509050919050565b61136580620011f383390190565b600082601f83011262000c3857600080fd5b813567ffffffffffffffff8082111562000c565762000c56620011c3565b604051601f8301601f19908116603f0116810190828211818310171562000c815762000c81620011c3565b8160405283815286602085880101111562000c9b57600080fd5b836020870160208301376000602085830101528094505050505092915050565b60006020828403121562000cce57600080fd5b813562000cdb81620011d9565b9392505050565b60006020828403121562000cf557600080fd5b815162000cdb81620011d9565b6000806040838503121562000d1657600080fd5b823562000d2381620011d9565b946020939093013593505050565b60006020828403121562000d4457600080fd5b5035919050565b60006020828403121562000d5e57600080fd5b5051919050565b6000806040838503121562000d7957600080fd5b82359150602083013562000d8d81620011d9565b809150509250929050565b6000806040838503121562000dac57600080fd5b50508035926020909101359150565b6000806000806080858703121562000dd257600080fd5b843593506020850135925060408501359150606085013567ffffffffffffffff81111562000dff57600080fd5b62000e0d8782880162000c26565b91505092959194509250565b600080600080600060a0868803121562000e3257600080fd5b853594506020860135935060408601359250606086013567ffffffffffffffff8082111562000e6057600080fd5b62000e6e89838a0162000c26565b9350608088013591508082111562000e8557600080fd5b9087019060a0828a03121562000e9a57600080fd5b62000ea462001118565b82358281111562000eb457600080fd5b62000ec28b82860162000c26565b82525060208301358281111562000ed857600080fd5b62000ee68b82860162000c26565b60208301525060408301358281111562000eff57600080fd5b62000f0d8b82860162000c26565b6040830152506060830135606082015260808301358281111562000f3057600080fd5b62000f3e8b82860162000c26565b6080830152508093505050509295509295909350565b600080600080600060a0868803121562000f6d57600080fd5b505083359560208501359550604085013594606081013594506080013592509050565b6000815180845260005b8181101562000fb85760208185018101518683018201520162000f9a565b8181111562000fcb576000602083870101525b50601f01601f19169290920160200192915050565b6001600160a01b038716815260c060208201819052600090620010069083018862000f90565b82810360408401526200101a818862000f90565b9050828103606084015262001030818762000f90565b905084608084015282810360a08401526200104c818562000f90565b9998505050505050505050565b6020808252825182820181905260009190848201906040850190845b818110156200109c5783516001600160a01b03168352928401929184019160010162001075565b50909695505050505050565b958652602086019490945260408501929092526001600160a01b03908116606085015260808401919091521660a082015260c00190565b85815284602082015283604082015260a0606082015260006200110660a083018562000f90565b90508260808301529695505050505050565b60405160a0810167ffffffffffffffff811182821017156200113e576200113e620011c3565b60405290565b600082198211156200115a576200115a62001197565b500190565b60008282101562001174576200117462001197565b500390565b600060001982141562001190576200119062001197565b5060010190565b634e487b7160e01b600052601160045260246000fd5b634e487b7160e01b600052603260045260246000fd5b634e487b7160e01b600052604160045260246000fd5b6001600160a01b0381168114620011ef57600080fd5b5056fe60806040523480156200001157600080fd5b5060405162001365380380620013658339810160408190526200003491620000de565b600080546001600160a01b0319166001600160a01b038516179055600186905562000060858762000142565b60028190556200007290859062000142565b600355600b80546001600160a01b031916331790556009829055600a8054600160a01b841515810260ff60a01b199092169190911791829055900460ff1615620000d257600a80546001600160a01b0319166001600160a01b0383161790555b50505050505062000182565b60008060008060008060c08789031215620000f857600080fd5b86519550602087015194506040870151935060608701516200011a8162000169565b608088015160a08901519194509250620001348162000169565b809150509295509295509295565b600082198211156200016457634e487b7160e01b600052601160045260246000fd5b500190565b6001600160a01b03811681146200017f57600080fd5b50565b6111d380620001926000396000f3fe60806040526004361061014b5760003560e01c80637e830574116100b6578063c45a01551161006f578063c45a0155146103bc578063d56d229d146103dc578063d57bde79146103fc578063e75f480c14610412578063e8f9009a14610427578063fc519f151461045d57600080fd5b80637e83057414610328578063900f080a1461033e57806391f901571461035e5780639528d4e91461037e578063957bb1e014610393578063a6e66477146103a657600080fd5b806338af3eed1161010857806338af3eed146102555780633ccfd60b1461028d578063423b217f146102a25780634d21e019146102b857806351dcb1c3146102f35780637c0fdd291461030857600080fd5b806301495c1c146101505780630162d12e1461018a578063022a6fae146101bb57806312fa6feb146101df578063150b7a02146101f95780632a24f46c1461023e575b600080fd5b34801561015c57600080fd5b5061017061016b366004610fda565b610472565b604080519283526020830191909152015b60405180910390f35b34801561019657600080fd5b50600a546101ab90600160a01b900460ff1681565b6040519015158152602001610181565b3480156101c757600080fd5b506101d160015481565b604051908152602001610181565b3480156101eb57600080fd5b506004546101ab9060ff1681565b34801561020557600080fd5b50610225610214366004610f3b565b630a85bd0160e11b95945050505050565b6040516001600160e01b03199091168152602001610181565b34801561024a57600080fd5b506102536104ae565b005b34801561026157600080fd5b50600054610275906001600160a01b031681565b6040516001600160a01b039091168152602001610181565b34801561029957600080fd5b5061025361081b565b3480156102ae57600080fd5b506101d160025481565b3480156102c457600080fd5b506102cd61086c565b60408051931515845260208401929092526001600160a01b031690820152606001610181565b3480156102ff57600080fd5b506101d161091e565b34801561031457600080fd5b506102536103233660046110c2565b610951565b34801561033457600080fd5b506101d160095481565b34801561034a57600080fd5b50610253610359366004611006565b6109d6565b34801561036a57600080fd5b50600654610275906001600160a01b031681565b34801561038a57600080fd5b506101d1610ce5565b6102536103a13660046110c2565b610d04565b3480156103b257600080fd5b506101d160035481565b3480156103c857600080fd5b50600b54610275906001600160a01b031681565b3480156103e857600080fd5b50600a54610275906001600160a01b031681565b34801561040857600080fd5b506101d160075481565b34801561041e57600080fd5b506101d1610dd6565b34801561043357600080fd5b506101d1610442366004610efa565b6001600160a01b031660009081526005602052604090205490565b34801561046957600080fd5b506101d1610df5565b6005602052816000526040600020818154811061048e57600080fd5b600091825260209091206002909102018054600190910154909250905082565b6003548042116104d957604051630a8d68c960e21b8152600481018290526024015b60405180910390fd5b60045460ff16156104fd57604051630c39fb9f60e31b815260040160405180910390fd5b600654600754600954604080516001600160a01b039094168452602084019290925282820152517fc358e8e3f205b5e7453abd5cbac388ca4552b887b69001bc972b88610c7490359181900360600190a16004805460ff19166001179055600a54600160a01b900460ff16801561057e57506006546001600160a01b031615155b156106a557600a546006546009546040516323b872dd60e01b81523060048201526001600160a01b03928316602482015260448101919091529116906323b872dd90606401600060405180830381600087803b1580156105dd57600080fd5b505af11580156105f1573d6000803e3d6000fd5b50506006546009546040516001600160a01b039092169350309250907f67043fac5fd2bf9edbb46ee495aaed7f97f91d43507d373be2b592af19b8c0a890600090a4600b546009546006546040516362c0dd2760e01b815260048101929092526001600160a01b039081166024830152909116906362c0dd2790604401600060405180830381600087803b15801561068857600080fd5b505af115801561069c573d6000803e3d6000fd5b505050506107d3565b600a54600160a01b900460ff16156107d357600a546000546009546040516323b872dd60e01b81523060048201526001600160a01b03928316602482015260448101919091529116906323b872dd90606401600060405180830381600087803b15801561071157600080fd5b505af1158015610725573d6000803e3d6000fd5b5050600080546009546040516001600160a01b039092169450309350917f67043fac5fd2bf9edbb46ee495aaed7f97f91d43507d373be2b592af19b8c0a891a4600b546009546000546040516362c0dd2760e01b815260048101929092526001600160a01b039081166024830152909116906362c0dd2790604401600060405180830381600087803b1580156107ba57600080fd5b505af11580156107ce573d6000803e3d6000fd5b505050505b6007541561081857600080546007546040516001600160a01b039092169281156108fc029290818181858888f19350505050158015610816573d6000803e3d6000fd5b505b50565b33600090815260086020526040902054801561081857336000818152600860205260408082208290555183156108fc0291849190818181858888f19350505050158015610816573d6000803e3d6000fd5b600a54600954600160a01b90910460ff16906000821561091657600a546009546040516331a9108f60e11b81526001600160a01b0390921691636352211e916108bb9160040190815260200190565b60206040518083038186803b1580156108d357600080fd5b505afa925050508015610903575060408051601f3d908101601f1916820190925261090091810190610f1e565b60015b61090f57506000909192565b9050909192565b506000909192565b6000600254421161092f5750600090565b600354421061093e5750600090565b4260035461094c919061112a565b905090565b600b546001600160a01b031633146109b55760405162461bcd60e51b815260206004820152602160248201527f4f6e6c7920666163746f72792063616e20736574204e465420746f6b656e20496044820152601160fa1b60648201526084016104d0565b6009819055600a805460ff60a01b1916911515600160a01b02919091179055565b6002548042116109fc57604051630a8d68c960e21b8152600481018290526024016104d0565b600354804210610a225760405163348f2b4160e11b8152600481018290526024016104d0565b33600090815260056020526040902054878114610a515760405162461bcd60e51b81526004016104d0906110db565b858114610a705760405162461bcd60e51b81526004016104d0906110db565b838114610a8f5760405162461bcd60e51b81526004016104d0906110db565b6000805b82811015610cad57336000908152600560205260408120805483908110610abc57610abc611172565b9060005260206000209060020201905060008060008e8e86818110610ae357610ae3611172565b905060200201358d8d87818110610afc57610afc611172565b9050602002016020810190610b1191906110a0565b8c8c88818110610b2357610b23611172565b90506020020135925092509250828282604051602001610b599392919092835290151560f81b6020830152602182015260410190565b60405160208183030381529060405280519060200120846000015414610b825750505050610c9b565b6001840154610b919087611112565b955081158015610ba5575082846001015410155b15610c5157610bb43384610e2d565b15610c1057610bc3838761112a565b60408051338152602081018690526001918101919091529096507f9c2d1dff1e244149eef8b49255674d40752acd825b23d4ad303807f98fe59532906060015b60405180910390a1610c92565b60408051338152602081018590526000918101919091527f9c2d1dff1e244149eef8b49255674d40752acd825b23d4ad303807f98fe5953290606001610c03565b604080513381526000602082018190528183015290517f9c2d1dff1e244149eef8b49255674d40752acd825b23d4ad303807f98fe595329181900360600190a15b50506000909155505b80610ca581611141565b915050610a93565b508015610cd9573360009081526008602052604081208054839290610cd3908490611112565b90915550505b50505050505050505050565b60006001544210610cf65750600090565b4260015461094c919061112a565b600154804211610d2a57604051630a8d68c960e21b8152600481018290526024016104d0565b600254804210610d505760405163348f2b4160e11b8152600481018290526024016104d0565b33600081815260056020908152604080832081518083018352888152348185018181528354600180820186559488529686902092516002909702909201958655905194909101939093558051938452908301919091527f0862512267aa2317caa9475b7e771425e6b897509aade0be0d8fc6f5ce5fdd18910160405180910390a1505050565b60006002544210610de75750600090565b4260025461094c919061112a565b6000600154421015610e075750600090565b600254421015610e175750600190565b600354421015610e275750600290565b50600390565b60006007548211610e4057506000610ea8565b6006546001600160a01b031615610e84576007546006546001600160a01b031660009081526008602052604081208054909190610e7e908490611112565b90915550505b506007819055600680546001600160a01b0319166001600160a01b03841617905560015b92915050565b60008083601f840112610ec057600080fd5b50813567ffffffffffffffff811115610ed857600080fd5b6020830191508360208260051b8501011115610ef357600080fd5b9250929050565b600060208284031215610f0c57600080fd5b8135610f1781611188565b9392505050565b600060208284031215610f3057600080fd5b8151610f1781611188565b600080600080600060808688031215610f5357600080fd5b8535610f5e81611188565b94506020860135610f6e81611188565b935060408601359250606086013567ffffffffffffffff80821115610f9257600080fd5b818801915088601f830112610fa657600080fd5b813581811115610fb557600080fd5b896020828501011115610fc757600080fd5b9699959850939650602001949392505050565b60008060408385031215610fed57600080fd5b8235610ff881611188565b946020939093013593505050565b6000806000806000806060878903121561101f57600080fd5b863567ffffffffffffffff8082111561103757600080fd5b6110438a838b01610eae565b9098509650602089013591508082111561105c57600080fd5b6110688a838b01610eae565b9096509450604089013591508082111561108157600080fd5b5061108e89828a01610eae565b979a9699509497509295939492505050565b6000602082840312156110b257600080fd5b81358015158114610f1757600080fd5b6000602082840312156110d457600080fd5b5035919050565b6020808252601a908201527f4172726179206c656e6774687320646f206e6f74206d61746368000000000000604082015260600190565b600082198211156111255761112561115c565b500190565b60008282101561113c5761113c61115c565b500390565b60006000198214156111555761115561115c565b5060010190565b634e487b7160e01b600052601160045260246000fd5b634e487b7160e01b600052603260045260246000fd5b6001600160a01b038116811461081857600080fdfea2646970667358221220f9d36b40774b14694e12ca2b10e662b4f190545f22fa44d32a364399b2de3ba364736f6c63430008050033a26469706673582212209d9515d92b62ead88a5d99126fff1c404f9a0728642386ef6bd8efde6f22227464736f6c63430008050033",
  "devdoc": {
    "kind": "dev",
    "methods": {
      "createAuction(uint256,uint256,uint256,string)": {
        "params": {
          "biddingTime": "",
          "metadata": "JSON",
          "revealTime": "",
          "startTime": ""
        },
        "returns": {
          "_0": ""
        }
      },
      "createNFTAuction(uint256,uint256,uint256,string,(string,string,string,uint256,string))": {
        "params": {
          "biddingTime": "",
          "metadata": "JSON",
          "nftMetadata": "NFT",
          "revealTime": "",
          "startTime": ""
        },
        "returns": {
          "auctionAddress": "",
          "nftTokenId": "NFT ID"
        }
      },
      "getAuctionCount()": {
        "returns": {
          "_0": ""
        }
      },
      "getAuctions(uint256,uint256)": {
        "params": {
          "count": "",
          "start": ""
        },
        "returns": {
          "_0": ""
        }
      },
      "getNFTAuction(uint256)": {
        "params": {
          "nftTokenId": "NFT ID"
        },
        "returns": {
          "_0": ""
        }
      },
      "getUserAuctions(address)": {
        "params": {
          "user": ""
        },
        "returns": {
          "_0": ""
        }
      },
      "notifyAuctionEnded(uint256,address)": {
        "params": {
          "nftTokenId": "NFT ID",
          "winner": ""
        }
      },
      "resellNFT(uint256,uint256,uint256,uint256,uint256)": {
        "params": {
          "biddingTime": "",
          "minPrice": "",
          "nftTokenId": "NFT ID",
          "revealTime": "",
          "startTime": ""
        },
        "returns": {
          "auctionAddress": ""
        }
      }
    },
    "title": "",
    "version": 1
  },
  "userdoc": {
    "kind": "user",
    "methods": {
      "createAuction(uint256,uint256,uint256,string)": {
        "notice": "NFT"
      },
      "createNFTAuction(uint256,uint256,uint256,string,(string,string,string,uint256,string))": {
        "notice": "NFTNFT"
      },
      "getAuctionCount()": {
        "notice": ""
      },
      "getAuctions(uint256,uint256)": {
        "notice": ""
      },
      "getNFTAuction(uint256)": {
        "notice": "NFT"
      },
      "getUserAuctions(address)": {
        "notice": ""
      },
      "notifyAuctionEnded(uint256,address)": {
        "notice": ""
      },
      "resellNFT(uint256,uint256,uint256,uint256,uint256)": {
        "notice": "NFTNFT"
      }
    },
    "notice": "NFT",
    "version": 1
  },
  "storageLayout": {
    "storage": [
      {
        "astId": 4136,
        "contract": "contracts/BlindAuctionFactory.sol:BlindAuctionFactory",
        "label": "nftContract",
        "offset": 0,
        "slot": "0",
        "type": "t_contract(AuctionNFT)3346"
      },
      {
        "astId": 4167,
        "contract": "contracts/BlindAuctionFactory.sol:BlindAuctionFactory",
        "label": "userAuctions",
        "offset": 0,
        "slot": "1",
        "type": "t_mapping(t_address,t_array(t_address)dyn_storage)"
      },
      {
        "astId": 4170,
        "contract": "contracts/BlindAuctionFactory.sol:BlindAuctionFactory",
        "label": "allAuctions",
        "offset": 0,
        "slot": "2",
        "type": "t_array(t_address)dyn_storage"
      },
      {
        "astId": 4174,
        "contract": "contracts/BlindAuctionFactory.sol:BlindAuctionFactory",
        "label": "nftToAuction",
        "offset": 0,
        "slot": "3",
        "type": "t_mapping(t_uint256,t_address)"
      }
    ],
    "types": {
      "t_address": {
        "encoding": "inplace",
        "label": "address",
        "numberOfBytes": "20"
      },
      "t_array(t_address)dyn_storage": {
        "base": "t_address",
        "encoding": "dynamic_array",
        "label": "address[]",
        "numberOfBytes": "32"
      },
      "t_contract(AuctionNFT)3346": {
        "encoding": "inplace",
        "label": "contract AuctionNFT",
        "numberOfBytes": "20"
      },
      "t_mapping(t_address,t_array(t_address)dyn_storage)": {
        "encoding": "mapping",
        "key": "t_address",
        "label": "mapping(address => address[])",
        "numberOfBytes": "32",
        "value": "t_array(t_address)dyn_storage"
      },
      "t_mapping(t_uint256,t_address)": {
        "encoding": "mapping",
        "key": "t_uint256",
        "label": "mapping(uint256 => address)",
        "numberOfBytes": "32",
        "value": "t_address"
      },
      "t_uint256": {
        "encoding": "inplace",
        "label": "uint256",
        "numberOfBytes": "32"
      }
    }
  }
}